{
  "contractName": "Nft",
  "abi": [
    {
      "inputs": [],
      "stateMutability": "nonpayable",
      "type": "constructor"
    },
    {
      "inputs": [],
      "name": "NftHasOwner",
      "type": "error"
    },
    {
      "inputs": [
        {
          "internalType": "bytes16",
          "name": "nftId",
          "type": "bytes16"
        },
        {
          "internalType": "bytes32",
          "name": "proof",
          "type": "bytes32"
        }
      ],
      "name": "PurchaseNft",
      "outputs": [],
      "stateMutability": "payable",
      "type": "function",
      "payable": true
    },
    {
      "inputs": [
        {
          "internalType": "bytes16",
          "name": "nftId",
          "type": "bytes16"
        }
      ],
      "name": "GetNftHash",
      "outputs": [
        {
          "internalType": "bytes32",
          "name": "",
          "type": "bytes32"
        }
      ],
      "stateMutability": "view",
      "type": "function",
      "constant": true
    },
    {
      "inputs": [
        {
          "internalType": "bytes32",
          "name": "nfthash",
          "type": "bytes32"
        }
      ],
      "name": "GetNft",
      "outputs": [
        {
          "components": [
            {
              "internalType": "uint256",
              "name": "id",
              "type": "uint256"
            },
            {
              "internalType": "uint256",
              "name": "price",
              "type": "uint256"
            },
            {
              "internalType": "bytes32",
              "name": "proof",
              "type": "bytes32"
            },
            {
              "internalType": "address",
              "name": "owner",
              "type": "address"
            },
            {
              "internalType": "enum Nft.State",
              "name": "state",
              "type": "uint8"
            }
          ],
          "internalType": "struct Nft.NftDetails",
          "name": "",
          "type": "tuple"
        }
      ],
      "stateMutability": "view",
      "type": "function",
      "constant": true
    }
  ],
  "bytecode": "0x608060405234801561001057600080fd5b50336000806101000a81548173ffffffffffffffffffffffffffffffffffffffff021916908373ffffffffffffffffffffffffffffffffffffffff16021790555061096f806100606000396000f3fe6080604052600436106100345760003560e01c8063087e1a321461003957806318cd929014610076578063ec1c4c5b146100b3575b600080fd5b34801561004557600080fd5b50610060600480360381019061005b9190610647565b6100cf565b60405161006d919061068d565b60405180910390f35b34801561008257600080fd5b5061009d600480360381019061009891906106d4565b610112565b6040516100aa9190610849565b60405180910390f35b6100cd60048036038101906100c89190610864565b6101ee565b005b600060016000836fffffffffffffffffffffffffffffffff19166fffffffffffffffffffffffffffffffff19168152602001908152602001600020549050919050565b61011a610590565b600260008381526020019081526020016000206040518060a00160405290816000820154815260200160018201548152602001600282015481526020016003820160009054906101000a900473ffffffffffffffffffffffffffffffffffffffff1673ffffffffffffffffffffffffffffffffffffffff1673ffffffffffffffffffffffffffffffffffffffff1681526020016003820160149054906101000a900460ff1660028111156101d1576101d061076a565b5b60028111156101e3576101e261076a565b5b815250509050919050565b6000823360405160200161020392919061090d565b60405160208183030381529060405280519060200120905061022481610522565b1561025b576040517f80a315b000000000000000000000000000000000000000000000000000000000815260040160405180910390fd5b600060016000856fffffffffffffffffffffffffffffffff19166fffffffffffffffffffffffffffffffff1916815260200190815260200160002054905060008114156103e1578160016000866fffffffffffffffffffffffffffffffff19166fffffffffffffffffffffffffffffffff19168152602001908152602001600020819055506040518060a00160405280600181526020013481526020018481526020013373ffffffffffffffffffffffffffffffffffffffff1681526020016000600281111561032e5761032d61076a565b5b8152506002600084815260200190815260200160002060008201518160000155602082015181600101556040820151816002015560608201518160030160006101000a81548173ffffffffffffffffffffffffffffffffffffffff021916908373ffffffffffffffffffffffffffffffffffffffff16021790555060808201518160030160146101000a81548160ff021916908360028111156103d4576103d361076a565b5b021790555090505061051c565b6040518060a00160405280600181526020013481526020018481526020013373ffffffffffffffffffffffffffffffffffffffff1681526020016000600281111561042f5761042e61076a565b5b8152506002600083815260200190815260200160002060008201518160000155602082015181600101556040820151816002015560608201518160030160006101000a81548173ffffffffffffffffffffffffffffffffffffffff021916908373ffffffffffffffffffffffffffffffffffffffff16021790555060808201518160030160146101000a81548160ff021916908360028111156104d5576104d461076a565b5b02179055509050508160016000866fffffffffffffffffffffffffffffffff19166fffffffffffffffffffffffffffffffff19168152602001908152602001600020819055505b50505050565b60003373ffffffffffffffffffffffffffffffffffffffff166002600084815260200190815260200160002060030160009054906101000a900473ffffffffffffffffffffffffffffffffffffffff1673ffffffffffffffffffffffffffffffffffffffff16149050919050565b6040518060a00160405280600081526020016000815260200160008019168152602001600073ffffffffffffffffffffffffffffffffffffffff168152602001600060028111156105e4576105e361076a565b5b81525090565b600080fd5b60007fffffffffffffffffffffffffffffffff0000000000000000000000000000000082169050919050565b610624816105ef565b811461062f57600080fd5b50565b6000813590506106418161061b565b92915050565b60006020828403121561065d5761065c6105ea565b5b600061066b84828501610632565b91505092915050565b6000819050919050565b61068781610674565b82525050565b60006020820190506106a2600083018461067e565b92915050565b6106b181610674565b81146106bc57600080fd5b50565b6000813590506106ce816106a8565b92915050565b6000602082840312156106ea576106e96105ea565b5b60006106f8848285016106bf565b91505092915050565b6000819050919050565b61071481610701565b82525050565b61072381610674565b82525050565b600073ffffffffffffffffffffffffffffffffffffffff82169050919050565b600061075482610729565b9050919050565b61076481610749565b82525050565b7f4e487b7100000000000000000000000000000000000000000000000000000000600052602160045260246000fd5b600381106107aa576107a961076a565b5b50565b60008190506107bb82610799565b919050565b60006107cb826107ad565b9050919050565b6107db816107c0565b82525050565b60a0820160008201516107f7600085018261070b565b50602082015161080a602085018261070b565b50604082015161081d604085018261071a565b506060820151610830606085018261075b565b50608082015161084360808501826107d2565b50505050565b600060a08201905061085e60008301846107e1565b92915050565b6000806040838503121561087b5761087a6105ea565b5b600061088985828601610632565b925050602061089a858286016106bf565b9150509250929050565b6000819050919050565b6108bf6108ba826105ef565b6108a4565b82525050565b60008160601b9050919050565b60006108dd826108c5565b9050919050565b60006108ef826108d2565b9050919050565b61090761090282610749565b6108e4565b82525050565b600061091982856108ae565b60108201915061092982846108f6565b601482019150819050939250505056fea26469706673582212207adfe334eb369b3e3289dc165e058a71e10960315cb8dbe6c638b741ee94b1eb64736f6c634300080b0033",
  "immutableReferences": {},
  "source": "// SPDX-License-Identifier: MIT\r\npragma solidity >=0.4.22 <0.9.0;\r\n//hello world\r\ncontract Nft{\r\n    \r\n    address owner;\r\n\r\n    constructor(){\r\n        owner = msg.sender;\r\n    }\r\n    enum State{\r\n        Purchased,\r\n        Activated,\r\n        Deactivated\r\n    }\r\n\r\n    struct NftDetails{\r\n        uint id;\r\n        uint price;\r\n        bytes32 proof;\r\n        address owner;\r\n        // bytes32 description;\r\n        // uint DateCreated;\r\n        State state;\r\n    }\r\n\r\n    mapping(bytes16 => bytes32) OwnerNfthash;\r\n    mapping(bytes32 => NftDetails) ownerNft;\r\n\r\n\r\n    /// You own this Nft already\r\n    error NftHasOwner();\r\n\r\n    function PurchaseNft(\r\n        bytes16 nftId,\r\n        bytes32 proof\r\n    )\r\n    external payable{\r\n        bytes32 nftHash = keccak256((abi.encodePacked(nftId,msg.sender)));\r\n\r\n        if(hasNftOwnership(nftHash)){\r\n            revert NftHasOwner();\r\n        }\r\n\r\n        bytes32 previosHash =  OwnerNfthash[nftId]; //previous owner = 0x5B38Da6a701c568545dCfcB03FcB875f56beddC4\r\n                                                    // previous hash = 0xc4eaa3558504e2baa2669001b43f359b8418b44a4477ff417b4b007d7cc86e37\r\n                                                    // new hash = 0xff97578d8dd58d484dac933924a0f06f3ff39cc2843610754dfebd8770f807e5\r\n                                                    // new owner = 0xAb8483F64d9C6d1EcF9b849Ae677dD3315835cb2\r\n        if(previosHash == \"\"){\r\n            OwnerNfthash[nftId] = nftHash;\r\n            ownerNft[nftHash] = NftDetails({\r\n                id: 1,\r\n                price : msg.value,\r\n                proof: proof,\r\n                owner: msg.sender,\r\n                state: State.Purchased\r\n            });\r\n        }else{\r\n            ownerNft[previosHash] = NftDetails({\r\n                id: 1,\r\n                price : msg.value,\r\n                proof: proof,\r\n                owner: msg.sender,\r\n                state: State.Purchased\r\n            });\r\n            OwnerNfthash[nftId] = nftHash;\r\n        }\r\n    }\r\n    // function AddNft(string memory ntfName, uint64 price, string memory nftDescription) public returns(bool success){\r\n\r\n    // }\r\n\r\n    function GetNftHash(bytes16 nftId)\r\n    external\r\n    view\r\n    returns\r\n    (bytes32){\r\n        return OwnerNfthash[nftId];\r\n    }\r\n\r\n    function GetNft(bytes32 nfthash)\r\n    external\r\n    view\r\n    returns\r\n    (NftDetails memory){\r\n        return ownerNft[nfthash];\r\n    }\r\n\r\n\r\n    function hasNftOwnership(bytes32 nfthash)\r\n    private \r\n    view\r\n    returns(bool)\r\n    {\r\n        return ownerNft[nfthash].owner == msg.sender;\r\n    }\r\n}",
  "sourcePath": "C:\\programming\\nftmarketplace\\web3folder\\contracts\\Nft.sol",
  "compiler": {
    "name": "solc",
    "version": "0.8.11+commit.d7f03943.Emscripten.clang"
  },
  "schemaVersion": "3.4.4",
  "updatedAt": "2022-09-10T10:54:35.095Z",
  "networkType": "ethereum",
  "devdoc": {
    "kind": "dev",
    "methods": {},
    "version": 1
  },
  "userdoc": {
    "errors": {
      "NftHasOwner()": [
        {
          "notice": "You own this Nft already"
        }
      ]
    },
    "kind": "user",
    "methods": {},
    "version": 1
  }
}